{
  "contractName": "Exchange",
  "abi": [
    {
      "inputs": [
        {
          "internalType": "address",
          "name": "_feeAccount",
          "type": "address"
        },
        {
          "internalType": "uint256",
          "name": "_feePercent",
          "type": "uint256"
        }
      ],
      "stateMutability": "nonpayable",
      "type": "constructor"
    },
    {
      "anonymous": false,
      "inputs": [
        {
          "indexed": false,
          "internalType": "address",
          "name": "token",
          "type": "address"
        },
        {
          "indexed": false,
          "internalType": "address",
          "name": "user",
          "type": "address"
        },
        {
          "indexed": false,
          "internalType": "uint256",
          "name": "amount",
          "type": "uint256"
        },
        {
          "indexed": false,
          "internalType": "uint256",
          "name": "balance",
          "type": "uint256"
        }
      ],
      "name": "Deposit",
      "type": "event"
    },
    {
      "anonymous": false,
      "inputs": [
        {
          "indexed": false,
          "internalType": "address",
          "name": "token",
          "type": "address"
        },
        {
          "indexed": false,
          "internalType": "address",
          "name": "user",
          "type": "address"
        },
        {
          "indexed": false,
          "internalType": "uint256",
          "name": "amount",
          "type": "uint256"
        },
        {
          "indexed": false,
          "internalType": "uint256",
          "name": "balance",
          "type": "uint256"
        }
      ],
      "name": "Withdraw",
      "type": "event"
    },
    {
      "stateMutability": "payable",
      "type": "fallback"
    },
    {
      "inputs": [],
      "name": "feeAccount",
      "outputs": [
        {
          "internalType": "address",
          "name": "",
          "type": "address"
        }
      ],
      "stateMutability": "view",
      "type": "function"
    },
    {
      "inputs": [],
      "name": "feePercent",
      "outputs": [
        {
          "internalType": "uint256",
          "name": "",
          "type": "uint256"
        }
      ],
      "stateMutability": "view",
      "type": "function"
    },
    {
      "inputs": [
        {
          "internalType": "address",
          "name": "",
          "type": "address"
        },
        {
          "internalType": "address",
          "name": "",
          "type": "address"
        }
      ],
      "name": "tokens",
      "outputs": [
        {
          "internalType": "uint256",
          "name": "",
          "type": "uint256"
        }
      ],
      "stateMutability": "view",
      "type": "function"
    },
    {
      "stateMutability": "payable",
      "type": "receive"
    },
    {
      "inputs": [],
      "name": "depositEther",
      "outputs": [],
      "stateMutability": "payable",
      "type": "function"
    },
    {
      "inputs": [
        {
          "internalType": "uint256",
          "name": "_amount",
          "type": "uint256"
        }
      ],
      "name": "withdrawEther",
      "outputs": [],
      "stateMutability": "nonpayable",
      "type": "function"
    },
    {
      "inputs": [
        {
          "internalType": "address",
          "name": "_token",
          "type": "address"
        },
        {
          "internalType": "uint256",
          "name": "_amount",
          "type": "uint256"
        }
      ],
      "name": "depositToken",
      "outputs": [],
      "stateMutability": "nonpayable",
      "type": "function"
    },
    {
      "inputs": [
        {
          "internalType": "address",
          "name": "_token",
          "type": "address"
        },
        {
          "internalType": "uint256",
          "name": "_amount",
          "type": "uint256"
        }
      ],
      "name": "withdrawToken",
      "outputs": [],
      "stateMutability": "nonpayable",
      "type": "function"
    },
    {
      "inputs": [
        {
          "internalType": "address",
          "name": "_token",
          "type": "address"
        },
        {
          "internalType": "address",
          "name": "_user",
          "type": "address"
        }
      ],
      "name": "balanceOf",
      "outputs": [
        {
          "internalType": "uint256",
          "name": "",
          "type": "uint256"
        }
      ],
      "stateMutability": "view",
      "type": "function"
    }
  ],
  "bytecode": "0x60806040523480156200001157600080fd5b506040516200109d3803806200109d83398181016040528101906200003791906200012b565b816000806101000a81548173ffffffffffffffffffffffffffffffffffffffff021916908373ffffffffffffffffffffffffffffffffffffffff16021790555080600181905550505062000172565b600080fd5b600073ffffffffffffffffffffffffffffffffffffffff82169050919050565b6000620000b8826200008b565b9050919050565b620000ca81620000ab565b8114620000d657600080fd5b50565b600081519050620000ea81620000bf565b92915050565b6000819050919050565b6200010581620000f0565b81146200011157600080fd5b50565b6000815190506200012581620000fa565b92915050565b6000806040838503121562000145576200014462000086565b5b60006200015585828601620000d9565b9250506020620001688582860162000114565b9150509250929050565b610f1b80620001826000396000f3fe60806040526004361061007f5760003560e01c80637fd6f15c1161004e5780637fd6f15c1461014857806398ea5fca146101735780639e281a981461017d578063f7888aec146101a657610089565b8063338b5dea1461008e5780633bed33ce146100b7578063508493bc146100e057806365e17c9d1461011d57610089565b3661008957600080fd5b600080fd5b34801561009a57600080fd5b506100b560048036038101906100b09190610ba4565b6101e3565b005b3480156100c357600080fd5b506100de60048036038101906100d99190610be4565b6103f6565b005b3480156100ec57600080fd5b5061010760048036038101906101029190610c11565b61064c565b6040516101149190610c60565b60405180910390f35b34801561012957600080fd5b50610132610671565b60405161013f9190610c8a565b60405180910390f35b34801561015457600080fd5b5061015d610695565b60405161016a9190610c60565b60405180910390f35b61017b61069b565b005b34801561018957600080fd5b506101a4600480360381019061019f9190610ba4565b6107ea565b005b3480156101b257600080fd5b506101cd60048036038101906101c89190610c11565b610a84565b6040516101da9190610c60565b60405180910390f35b600073ffffffffffffffffffffffffffffffffffffffff168273ffffffffffffffffffffffffffffffffffffffff16141561021d57600080fd5b8173ffffffffffffffffffffffffffffffffffffffff166323b872dd3330846040518463ffffffff1660e01b815260040161025a93929190610ca5565b6020604051808303816000875af1158015610279573d6000803e3d6000fd5b505050506040513d601f19601f8201168201806040525081019061029d9190610d14565b6102a657600080fd5b80600260008473ffffffffffffffffffffffffffffffffffffffff1673ffffffffffffffffffffffffffffffffffffffff16815260200190815260200160002060003373ffffffffffffffffffffffffffffffffffffffff1673ffffffffffffffffffffffffffffffffffffffff16815260200190815260200160002060008282546103329190610d70565b925050819055507fdcbc1c05240f31ff3ad067ef1ee35ce4997762752e3a095284754544f4c709d7823383600260008773ffffffffffffffffffffffffffffffffffffffff1673ffffffffffffffffffffffffffffffffffffffff16815260200190815260200160002060003373ffffffffffffffffffffffffffffffffffffffff1673ffffffffffffffffffffffffffffffffffffffff168152602001908152602001600020546040516103ea9493929190610dc6565b60405180910390a15050565b80600260008073ffffffffffffffffffffffffffffffffffffffff1673ffffffffffffffffffffffffffffffffffffffff16815260200190815260200160002060003373ffffffffffffffffffffffffffffffffffffffff1673ffffffffffffffffffffffffffffffffffffffff1681526020019081526020016000205410156104b5576040517f08c379a00000000000000000000000000000000000000000000000000000000081526004016104ac90610e68565b60405180910390fd5b80600260008073ffffffffffffffffffffffffffffffffffffffff1673ffffffffffffffffffffffffffffffffffffffff16815260200190815260200160002060003373ffffffffffffffffffffffffffffffffffffffff1673ffffffffffffffffffffffffffffffffffffffff16815260200190815260200160002060008282546105419190610e88565b925050819055503373ffffffffffffffffffffffffffffffffffffffff166108fc829081150290604051600060405180830381858888f1935050505015801561058e573d6000803e3d6000fd5b507ff341246adaac6f497bc2a656f546ab9e182111d630394f0c57c710a59a2cb56760003383600260008073ffffffffffffffffffffffffffffffffffffffff1673ffffffffffffffffffffffffffffffffffffffff16815260200190815260200160002060003373ffffffffffffffffffffffffffffffffffffffff1673ffffffffffffffffffffffffffffffffffffffff168152602001908152602001600020546040516106419493929190610dc6565b60405180910390a150565b6002602052816000526040600020602052806000526040600020600091509150505481565b60008054906101000a900473ffffffffffffffffffffffffffffffffffffffff1681565b60015481565b34600260008073ffffffffffffffffffffffffffffffffffffffff1673ffffffffffffffffffffffffffffffffffffffff16815260200190815260200160002060003373ffffffffffffffffffffffffffffffffffffffff1673ffffffffffffffffffffffffffffffffffffffff16815260200190815260200160002060008282546107279190610d70565b925050819055507fdcbc1c05240f31ff3ad067ef1ee35ce4997762752e3a095284754544f4c709d760003334600260008073ffffffffffffffffffffffffffffffffffffffff1673ffffffffffffffffffffffffffffffffffffffff16815260200190815260200160002060003373ffffffffffffffffffffffffffffffffffffffff1673ffffffffffffffffffffffffffffffffffffffff168152602001908152602001600020546040516107e09493929190610dc6565b60405180910390a1565b600073ffffffffffffffffffffffffffffffffffffffff168273ffffffffffffffffffffffffffffffffffffffff16141561082457600080fd5b80600260008473ffffffffffffffffffffffffffffffffffffffff1673ffffffffffffffffffffffffffffffffffffffff16815260200190815260200160002060003373ffffffffffffffffffffffffffffffffffffffff1673ffffffffffffffffffffffffffffffffffffffff1681526020019081526020016000205410156108ad57600080fd5b80600260008473ffffffffffffffffffffffffffffffffffffffff1673ffffffffffffffffffffffffffffffffffffffff16815260200190815260200160002060003373ffffffffffffffffffffffffffffffffffffffff1673ffffffffffffffffffffffffffffffffffffffff16815260200190815260200160002060008282546109399190610e88565b925050819055508173ffffffffffffffffffffffffffffffffffffffff1663a9059cbb33836040518363ffffffff1660e01b815260040161097b929190610ebc565b6020604051808303816000875af115801561099a573d6000803e3d6000fd5b505050506040513d601f19601f820116820180604052508101906109be9190610d14565b6109c757600080fd5b7ff341246adaac6f497bc2a656f546ab9e182111d630394f0c57c710a59a2cb567823383600260008773ffffffffffffffffffffffffffffffffffffffff1673ffffffffffffffffffffffffffffffffffffffff16815260200190815260200160002060003373ffffffffffffffffffffffffffffffffffffffff1673ffffffffffffffffffffffffffffffffffffffff16815260200190815260200160002054604051610a789493929190610dc6565b60405180910390a15050565b6000600260008473ffffffffffffffffffffffffffffffffffffffff1673ffffffffffffffffffffffffffffffffffffffff16815260200190815260200160002060008373ffffffffffffffffffffffffffffffffffffffff1673ffffffffffffffffffffffffffffffffffffffff16815260200190815260200160002054905092915050565b600080fd5b600073ffffffffffffffffffffffffffffffffffffffff82169050919050565b6000610b3b82610b10565b9050919050565b610b4b81610b30565b8114610b5657600080fd5b50565b600081359050610b6881610b42565b92915050565b6000819050919050565b610b8181610b6e565b8114610b8c57600080fd5b50565b600081359050610b9e81610b78565b92915050565b60008060408385031215610bbb57610bba610b0b565b5b6000610bc985828601610b59565b9250506020610bda85828601610b8f565b9150509250929050565b600060208284031215610bfa57610bf9610b0b565b5b6000610c0884828501610b8f565b91505092915050565b60008060408385031215610c2857610c27610b0b565b5b6000610c3685828601610b59565b9250506020610c4785828601610b59565b9150509250929050565b610c5a81610b6e565b82525050565b6000602082019050610c756000830184610c51565b92915050565b610c8481610b30565b82525050565b6000602082019050610c9f6000830184610c7b565b92915050565b6000606082019050610cba6000830186610c7b565b610cc76020830185610c7b565b610cd46040830184610c51565b949350505050565b60008115159050919050565b610cf181610cdc565b8114610cfc57600080fd5b50565b600081519050610d0e81610ce8565b92915050565b600060208284031215610d2a57610d29610b0b565b5b6000610d3884828501610cff565b91505092915050565b7f4e487b7100000000000000000000000000000000000000000000000000000000600052601160045260246000fd5b6000610d7b82610b6e565b9150610d8683610b6e565b9250827fffffffffffffffffffffffffffffffffffffffffffffffffffffffffffffffff03821115610dbb57610dba610d41565b5b828201905092915050565b6000608082019050610ddb6000830187610c7b565b610de86020830186610c7b565b610df56040830185610c51565b610e026060830184610c51565b95945050505050565b600082825260208201905092915050565b7f496e73756666696369656e742062616c616e6365000000000000000000000000600082015250565b6000610e52601483610e0b565b9150610e5d82610e1c565b602082019050919050565b60006020820190508181036000830152610e8181610e45565b9050919050565b6000610e9382610b6e565b9150610e9e83610b6e565b925082821015610eb157610eb0610d41565b5b828203905092915050565b6000604082019050610ed16000830185610c7b565b610ede6020830184610c51565b939250505056fea2646970667358221220bcb4c8d127caa2e6b6781707347e5142e68d043a7b398f988cfff54272944b9b64736f6c634300080c0033",
  "immutableReferences": {},
  "source": "// SPDX-License-Identifier: UNLICENSED\npragma solidity ^0.8.12;\n\nimport \"./Token.sol\";\n\n// TODO:\n// [X] Set the fee account\n// [X] Deposit Ether\n// [X] Withdraw Ether\n// [X] Deposit tokens\n// [X] Withdraw tokens\n// [X] Check balances\n// [ ] Make order\n// [ ] Cancel order\n// [ ] Fill order\n// [ ] Charge fees\n\ncontract Exchange {\n    address public feeAccount; // the account that receives exchange fees\n    uint256 public feePercent;\n    address constant ETHER = address(0); // store Ether in tokens mapping with blank address\n    mapping(address => mapping(address => uint256)) public tokens;\n\n    // Events\n    event Deposit(address token, address user, uint256 amount, uint256 balance);\n    event Withdraw(address token, address user, uint amount, uint balance);\n\n    constructor(address _feeAccount, uint256 _feePercent) {\n        feeAccount = _feeAccount;\n        feePercent = _feePercent;\n    }\n\n    // Fallback: reverts if Ether is sent to this smart contract by mistake\n    fallback() external payable {\n        revert();\n    }\n\n    // Receive function: this will handle plain Ether transfers\n    receive() external payable {\n        revert(); // Remove this line if you want to accept Ether\n    }\n\n    function depositEther() public payable {\n        tokens[ETHER][msg.sender] += msg.value;\n        emit Deposit(ETHER, msg.sender, msg.value, tokens[ETHER][msg.sender]);\n    }\n\n    function withdrawEther(uint _amount) public {\n        require(tokens[ETHER][msg.sender] >= _amount, \"Insufficient balance\");\n        tokens[ETHER][msg.sender] -= _amount;\n        payable(msg.sender).transfer(_amount);\n        emit Withdraw(ETHER, msg.sender, _amount, tokens[ETHER][msg.sender]);\n    }\n\n    function depositToken(address _token, uint _amount) public {\n        // Don't allow Ether deposits\n        require(_token != ETHER);\n        require(Token(_token).transferFrom(msg.sender, address(this), _amount));\n        tokens[_token][msg.sender] += _amount;\n        emit Deposit(_token, msg.sender, _amount, tokens[_token][msg.sender]);\n    }\n\n    function withdrawToken(address _token, uint256 _amount) public {\n        require(_token != ETHER);\n        require(tokens[_token][msg.sender] >= _amount);\n        tokens[_token][msg.sender] -= _amount;\n        require(Token(_token).transfer(msg.sender, _amount));\n        emit Withdraw(_token, msg.sender, _amount, tokens[_token][msg.sender]);\n    }\n\n    function balanceOf(\n        address _token,\n        address _user\n    ) public view returns (uint256) {\n        return tokens[_token][_user];\n    }\n}\n",
  "sourcePath": "/Users/dianabastos/Documents/playground/diba_token/src/contracts/Exchange.sol",
  "compiler": {
    "name": "solc",
    "version": "0.8.12+commit.f00d7308.Emscripten.clang"
  },
  "schemaVersion": "3.4.16",
  "updatedAt": "2024-08-18T16:02:34.885Z",
  "devdoc": {
    "kind": "dev",
    "methods": {},
    "version": 1
  },
  "userdoc": {
    "kind": "user",
    "methods": {},
    "version": 1
  }
}